{
  "address": "0xe7f1725E7734CE288F8367e1Bb143E90bb3F0512",
  "abi": [
    {
      "inputs": [
        {
          "internalType": "address",
          "name": "stakingToken",
          "type": "address"
        },
        {
          "internalType": "address",
          "name": "rewardToken",
          "type": "address"
        }
      ],
      "stateMutability": "nonpayable",
      "type": "constructor"
    },
    {
      "inputs": [],
      "name": "Staking__InsufficientAmount",
      "type": "error"
    },
    {
      "inputs": [
        {
          "internalType": "uint256",
          "name": "userBalance",
          "type": "uint256"
        },
        {
          "internalType": "uint256",
          "name": "requiredAmt",
          "type": "uint256"
        }
      ],
      "name": "Staking__InsufficientTokenToStake",
      "type": "error"
    },
    {
      "inputs": [
        {
          "internalType": "address",
          "name": "from",
          "type": "address"
        },
        {
          "internalType": "address",
          "name": "to",
          "type": "address"
        },
        {
          "internalType": "uint256",
          "name": "amount",
          "type": "uint256"
        }
      ],
      "name": "Staking__TransferFailed",
      "type": "error"
    },
    {
      "stateMutability": "payable",
      "type": "fallback"
    },
    {
      "inputs": [],
      "name": "REWARD_RATE",
      "outputs": [
        {
          "internalType": "uint256",
          "name": "",
          "type": "uint256"
        }
      ],
      "stateMutability": "view",
      "type": "function"
    },
    {
      "inputs": [],
      "name": "claimReward",
      "outputs": [],
      "stateMutability": "nonpayable",
      "type": "function"
    },
    {
      "inputs": [
        {
          "internalType": "address",
          "name": "account",
          "type": "address"
        }
      ],
      "name": "earned",
      "outputs": [
        {
          "internalType": "uint256",
          "name": "",
          "type": "uint256"
        }
      ],
      "stateMutability": "view",
      "type": "function"
    },
    {
      "inputs": [
        {
          "internalType": "address",
          "name": "",
          "type": "address"
        }
      ],
      "name": "s_balances",
      "outputs": [
        {
          "internalType": "uint256",
          "name": "",
          "type": "uint256"
        }
      ],
      "stateMutability": "view",
      "type": "function"
    },
    {
      "inputs": [],
      "name": "s_lastUpdateTime",
      "outputs": [
        {
          "internalType": "uint256",
          "name": "",
          "type": "uint256"
        }
      ],
      "stateMutability": "view",
      "type": "function"
    },
    {
      "inputs": [],
      "name": "s_rewardPerTokenStored",
      "outputs": [
        {
          "internalType": "uint256",
          "name": "",
          "type": "uint256"
        }
      ],
      "stateMutability": "view",
      "type": "function"
    },
    {
      "inputs": [],
      "name": "s_rewardToken",
      "outputs": [
        {
          "internalType": "contract IERC20",
          "name": "",
          "type": "address"
        }
      ],
      "stateMutability": "view",
      "type": "function"
    },
    {
      "inputs": [
        {
          "internalType": "address",
          "name": "",
          "type": "address"
        }
      ],
      "name": "s_rewards",
      "outputs": [
        {
          "internalType": "uint256",
          "name": "",
          "type": "uint256"
        }
      ],
      "stateMutability": "view",
      "type": "function"
    },
    {
      "inputs": [],
      "name": "s_stakingToken",
      "outputs": [
        {
          "internalType": "contract IERC20",
          "name": "",
          "type": "address"
        }
      ],
      "stateMutability": "view",
      "type": "function"
    },
    {
      "inputs": [],
      "name": "s_totalSupply",
      "outputs": [
        {
          "internalType": "uint256",
          "name": "",
          "type": "uint256"
        }
      ],
      "stateMutability": "view",
      "type": "function"
    },
    {
      "inputs": [
        {
          "internalType": "address",
          "name": "",
          "type": "address"
        }
      ],
      "name": "s_userRewardPerTokenPaid",
      "outputs": [
        {
          "internalType": "uint256",
          "name": "",
          "type": "uint256"
        }
      ],
      "stateMutability": "view",
      "type": "function"
    },
    {
      "inputs": [
        {
          "internalType": "uint256",
          "name": "amount",
          "type": "uint256"
        }
      ],
      "name": "stake",
      "outputs": [],
      "stateMutability": "nonpayable",
      "type": "function"
    },
    {
      "inputs": [
        {
          "internalType": "uint256",
          "name": "amount",
          "type": "uint256"
        }
      ],
      "name": "withdraw",
      "outputs": [],
      "stateMutability": "nonpayable",
      "type": "function"
    },
    {
      "stateMutability": "payable",
      "type": "receive"
    }
  ],
  "transactionHash": "0xd2c2c28c0490325085b80e825297f48afa1223cfe7f5e07754b67e432e636daa",
  "args": [
    "0x5FbDB2315678afecb367f032d93F642f64180aa3",
    "0x5FbDB2315678afecb367f032d93F642f64180aa3"
  ],
  "numDeployments": 1,
  "solcInputHash": "f4e6380b823a1186af66b765dd17e606",
  "bytecode": "0x60c060405234801561001057600080fd5b50604051610a8f380380610a8f83398101604081905261002f91610062565b6001600160a01b039182166080521660a052610095565b80516001600160a01b038116811461005d57600080fd5b919050565b6000806040838503121561007557600080fd5b61007e83610046565b915061008c60208401610046565b90509250929050565b60805160a0516109b96100d660003960008181610162015261078a0152600081816102270152818161041c01528181610543015261063401526109b96000f3fe6080604052600436106100c95760003560e01c80636aa0838f11610079578063adca9b7211610056578063adca9b7214610215578063b88a802f14610249578063bea081511461025e578063f245ace41461028b57005b80636aa0838f146101b2578063a694fc3a146101c8578063ab32eb69146101e857005b80635997bb37116100a75780635997bb371461013b5780636374cc00146101505780636a74a0fc1461019c57005b80628cc262146100d25780632e1a7d4d14610105578063304ac91b1461012557005b366100d057005b005b3480156100de57600080fd5b506100f26100ed366004610884565b6102b8565b6040519081526020015b60405180910390f35b34801561011157600080fd5b506100d06101203660046108b4565b61033c565b34801561013157600080fd5b506100f260045481565b34801561014757600080fd5b506100f2606481565b34801561015c57600080fd5b506101847f000000000000000000000000000000000000000000000000000000000000000081565b6040516001600160a01b0390911681526020016100fc565b3480156101a857600080fd5b506100f260035481565b3480156101be57600080fd5b506100f260055481565b3480156101d457600080fd5b506100d06101e33660046108b4565b6104ca565b3480156101f457600080fd5b506100f2610203366004610884565b60006020819052908152604090205481565b34801561022157600080fd5b506101847f000000000000000000000000000000000000000000000000000000000000000081565b34801561025557600080fd5b506100d061071b565b34801561026a57600080fd5b506100f2610279366004610884565b60016020526000908152604090205481565b34801561029757600080fd5b506100f26102a6366004610884565b60026020526000908152604090205481565b6001600160a01b038116600090815260208181526040808320546002909252822054826102e3610826565b6001600160a01b03861660009081526001602052604081205491925081670de0b6b3a764000061031386866108e3565b61031d90886108fc565b6103279190610913565b6103319190610935565b979650505050505050565b33610345610826565b60045542600555610355816102b8565b6001600160a01b038216600090815260016020908152604080832093909355600454600282528383205533825281905220548211156103c0576040517fea768eaf00000000000000000000000000000000000000000000000000000000815260040160405180910390fd5b33600090815260208190526040812080548492906103df9084906108e3565b9250508190555081600360008282546103f891906108e3565b909155505060405163a9059cbb60e01b8152336004820152602481018390526000907f00000000000000000000000000000000000000000000000000000000000000006001600160a01b03169063a9059cbb906044016020604051808303816000875af115801561046d573d6000803e3d6000fd5b505050506040513d601f19601f820116820180604052508101906104919190610948565b9050806104c557604051634c58507d60e11b8152306004820152336024820152604481018490526064015b60405180910390fd5b505050565b336104d3610826565b600455426005556104e3816102b8565b6001600160a01b038281166000908152600160209081526040808320949094556004805460029092528483209190915592517f70a082310000000000000000000000000000000000000000000000000000000081523393810193909352917f0000000000000000000000000000000000000000000000000000000000000000909116906370a0823190602401602060405180830381865afa15801561058c573d6000803e3d6000fd5b505050506040513d601f19601f820116820180604052508101906105b0919061096a565b9050828110156105f6576040517f70bd02f800000000000000000000000000000000000000000000000000000000815260048101829052602481018490526044016104bc565b6040517f23b872dd000000000000000000000000000000000000000000000000000000008152336004820152306024820152604481018490526000907f00000000000000000000000000000000000000000000000000000000000000006001600160a01b0316906323b872dd906064016020604051808303816000875af1158015610685573d6000803e3d6000fd5b505050506040513d601f19601f820116820180604052508101906106a99190610948565b9050806106d857604051634c58507d60e11b8152336004820152306024820152604481018590526064016104bc565b33600090815260208190526040812080548692906106f7908490610935565b9250508190555083600360008282546107109190610935565b909155505050505050565b33610724610826565b60045542600555610734816102b8565b6001600160a01b03828116600090815260016020818152604080842095909555600480546002835286852055338085529290915284832054945163a9059cbb60e01b8152908101919091526024810184905290917f0000000000000000000000000000000000000000000000000000000000000000169063a9059cbb906044016020604051808303816000875af11580156107d3573d6000803e3d6000fd5b505050506040513d601f19601f820116820180604052508101906107f79190610948565b9050806104c557604051634c58507d60e11b8152306004820152336024820152604481018390526064016104bc565b6000600354600003610839575060045490565b60035460646005544261084c91906108e3565b61085691906108fc565b61086890670de0b6b3a76400006108fc565b6108729190610913565b60045461087f9190610935565b905090565b60006020828403121561089657600080fd5b81356001600160a01b03811681146108ad57600080fd5b9392505050565b6000602082840312156108c657600080fd5b5035919050565b634e487b7160e01b600052601160045260246000fd5b818103818111156108f6576108f66108cd565b92915050565b80820281158282048414176108f6576108f66108cd565b60008261093057634e487b7160e01b600052601260045260246000fd5b500490565b808201808211156108f6576108f66108cd565b60006020828403121561095a57600080fd5b815180151581146108ad57600080fd5b60006020828403121561097c57600080fd5b505191905056fea2646970667358221220343532b7d76217d54f01b3c5fd0972bc330f0b7e49d9468541cd5796380e3c4964736f6c63430008120033",
  "devdoc": {
    "kind": "dev",
    "methods": {
      "stake(uint256)": {
        "details": "Allow only a specific token to Stake",
        "params": {
          "amount": "Amount of token to Stake"
        }
      },
      "withdraw(uint256)": {
        "details": "Allow user to withdraw their Staked Tokens",
        "params": {
          "amount": "Withdraw token amount"
        }
      }
    },
    "version": 1
  },
  "userdoc": {
    "kind": "user",
    "methods": {},
    "version": 1
  },
  "storageLayout": {
    "storage": [
      {
        "astId": 90,
        "contract": "contracts/Staking.sol:Staking",
        "label": "s_balances",
        "offset": 0,
        "slot": "0",
        "type": "t_mapping(t_address,t_uint256)"
      },
      {
        "astId": 94,
        "contract": "contracts/Staking.sol:Staking",
        "label": "s_rewards",
        "offset": 0,
        "slot": "1",
        "type": "t_mapping(t_address,t_uint256)"
      },
      {
        "astId": 98,
        "contract": "contracts/Staking.sol:Staking",
        "label": "s_userRewardPerTokenPaid",
        "offset": 0,
        "slot": "2",
        "type": "t_mapping(t_address,t_uint256)"
      },
      {
        "astId": 100,
        "contract": "contracts/Staking.sol:Staking",
        "label": "s_totalSupply",
        "offset": 0,
        "slot": "3",
        "type": "t_uint256"
      },
      {
        "astId": 102,
        "contract": "contracts/Staking.sol:Staking",
        "label": "s_rewardPerTokenStored",
        "offset": 0,
        "slot": "4",
        "type": "t_uint256"
      },
      {
        "astId": 104,
        "contract": "contracts/Staking.sol:Staking",
        "label": "s_lastUpdateTime",
        "offset": 0,
        "slot": "5",
        "type": "t_uint256"
      }
    ],
    "types": {
      "t_address": {
        "encoding": "inplace",
        "label": "address",
        "numberOfBytes": "20"
      },
      "t_mapping(t_address,t_uint256)": {
        "encoding": "mapping",
        "key": "t_address",
        "label": "mapping(address => uint256)",
        "numberOfBytes": "32",
        "value": "t_uint256"
      },
      "t_uint256": {
        "encoding": "inplace",
        "label": "uint256",
        "numberOfBytes": "32"
      }
    }
  }
}